{
  "address": "0xa513E6E4b8f2a923D98304ec87F64353C4D5C853",
  "abi": [
    {
      "inputs": [
        {
          "internalType": "string",
          "name": "_leader",
          "type": "string"
        }
      ],
      "name": "createLeader",
      "outputs": [],
      "stateMutability": "nonpayable",
      "type": "function"
    },
    {
      "inputs": [],
      "name": "getLeader",
      "outputs": [
        {
          "internalType": "string",
          "name": "",
          "type": "string"
        }
      ],
      "stateMutability": "view",
      "type": "function"
    }
  ],
  "transactionHash": "0xfc8f6f19bfec343b56f2b040d2da1b7535979d70cca0c4ec6fde3cf575f5bdd3",
  "args": [],
  "numDeployments": 1,
  "solcInputHash": "42f58216bea767195fd6b51add742a6a",
  "bytecode": "0x60806040526040518060400160405280600a81526020017f4d494b45205459534f4e000000000000000000000000000000000000000000008152506000908051906020019061004f929190610062565b5034801561005c57600080fd5b50610166565b82805461006e90610134565b90600052602060002090601f01602090048101928261009057600085556100d7565b82601f106100a957805160ff19168380011785556100d7565b828001600101855582156100d7579182015b828111156100d65782518255916020019190600101906100bb565b5b5090506100e491906100e8565b5090565b5b808211156101015760008160009055506001016100e9565b5090565b7f4e487b7100000000000000000000000000000000000000000000000000000000600052602260045260246000fd5b6000600282049050600182168061014c57607f821691505b602082108114156101605761015f610105565b5b50919050565b6104a8806101756000396000f3fe608060405234801561001057600080fd5b50600436106100365760003560e01c80631b0d65f41461003b5780634c051f1414610057575b600080fd5b6100556004803603810190610050919061031e565b610075565b005b61005f61008f565b60405161006c91906103ef565b60405180910390f35b806000908051906020019061008b929190610121565b5050565b60606000805461009e90610440565b80601f01602080910402602001604051908101604052809291908181526020018280546100ca90610440565b80156101175780601f106100ec57610100808354040283529160200191610117565b820191906000526020600020905b8154815290600101906020018083116100fa57829003601f168201915b5050505050905090565b82805461012d90610440565b90600052602060002090601f01602090048101928261014f5760008555610196565b82601f1061016857805160ff1916838001178555610196565b82800160010185558215610196579182015b8281111561019557825182559160200191906001019061017a565b5b5090506101a391906101a7565b5090565b5b808211156101c05760008160009055506001016101a8565b5090565b6000604051905090565b600080fd5b600080fd5b600080fd5b600080fd5b6000601f19601f8301169050919050565b7f4e487b7100000000000000000000000000000000000000000000000000000000600052604160045260246000fd5b61022b826101e2565b810181811067ffffffffffffffff8211171561024a576102496101f3565b5b80604052505050565b600061025d6101c4565b90506102698282610222565b919050565b600067ffffffffffffffff821115610289576102886101f3565b5b610292826101e2565b9050602081019050919050565b82818337600083830152505050565b60006102c16102bc8461026e565b610253565b9050828152602081018484840111156102dd576102dc6101dd565b5b6102e884828561029f565b509392505050565b600082601f830112610305576103046101d8565b5b81356103158482602086016102ae565b91505092915050565b600060208284031215610334576103336101ce565b5b600082013567ffffffffffffffff811115610352576103516101d3565b5b61035e848285016102f0565b91505092915050565b600081519050919050565b600082825260208201905092915050565b60005b838110156103a1578082015181840152602081019050610386565b838111156103b0576000848401525b50505050565b60006103c182610367565b6103cb8185610372565b93506103db818560208601610383565b6103e4816101e2565b840191505092915050565b6000602082019050818103600083015261040981846103b6565b905092915050565b7f4e487b7100000000000000000000000000000000000000000000000000000000600052602260045260246000fd5b6000600282049050600182168061045857607f821691505b6020821081141561046c5761046b610411565b5b5091905056fea2646970667358221220b30defe7de35fac8586db24d9ebe16d1987c9fdda4b4bd75c13c89dd58a6fd3564736f6c63430008080033",
  "devdoc": {
    "kind": "dev",
    "methods": {},
    "version": 1
  },
  "userdoc": {
    "kind": "user",
    "methods": {},
    "version": 1
  },
  "storageLayout": {
    "storage": [
      {
        "astId": 4,
        "contract": "contracts/Leader.sol:Leader",
        "label": "nextMission",
        "offset": 0,
        "slot": "0",
        "type": "t_string_storage"
      }
    ],
    "types": {
      "t_string_storage": {
        "encoding": "bytes",
        "label": "string",
        "numberOfBytes": "32"
      }
    }
  }
}